{
  "contractName": "CreditLimit",
  "abi": [
    {
      "inputs": [],
      "stateMutability": "nonpayable",
      "type": "constructor"
    },
    {
      "inputs": [
        {
          "internalType": "uint256",
          "name": "food",
          "type": "uint256"
        },
        {
          "internalType": "uint256",
          "name": "travel",
          "type": "uint256"
        },
        {
          "internalType": "uint256",
          "name": "stay",
          "type": "uint256"
        }
      ],
      "name": "spend",
      "outputs": [
        {
          "internalType": "string",
          "name": "",
          "type": "string"
        },
        {
          "internalType": "uint256",
          "name": "",
          "type": "uint256"
        }
      ],
      "stateMutability": "nonpayable",
      "type": "function"
    },
    {
      "inputs": [
        {
          "internalType": "uint256",
          "name": "amt",
          "type": "uint256"
        }
      ],
      "name": "reset",
      "outputs": [
        {
          "internalType": "string",
          "name": "",
          "type": "string"
        },
        {
          "internalType": "uint256",
          "name": "",
          "type": "uint256"
        }
      ],
      "stateMutability": "nonpayable",
      "type": "function"
    }
  ],
  "bytecode": "0x608060405234801561001057600080fd5b506103e860008190555061040a806100296000396000f3fe608060405234801561001057600080fd5b50600436106100365760003560e01c806319ca523b1461003b578063310bd74b1461006c575b600080fd5b610055600480360381019061005091906101ee565b61009d565b6040516100639291906102e0565b60405180910390f35b61008660048036038101906100819190610310565b610165565b6040516100949291906102e0565b60405180910390f35b60606000808385876100af919061036c565b6100b9919061036c565b9050600054811115610109576000546040518060400160405280601081526020017f5472616e73616374696f6e206661696c0000000000000000000000000000000081525090925092505061015d565b8060005461011791906103a0565b6000819055506000546040518060400160405280601681526020017f5472616e73616374696f6e207375636365737366756c000000000000000000008152509092509250505b935093915050565b60606000826000819055506000546040518060400160405280600b81526020017f4c696d69742072657365740000000000000000000000000000000000000000008152509091509150915091565b600080fd5b6000819050919050565b6101cb816101b8565b81146101d657600080fd5b50565b6000813590506101e8816101c2565b92915050565b600080600060608486031215610207576102066101b3565b5b6000610215868287016101d9565b9350506020610226868287016101d9565b9250506040610237868287016101d9565b9150509250925092565b600081519050919050565b600082825260208201905092915050565b60005b8381101561027b578082015181840152602081019050610260565b60008484015250505050565b6000601f19601f8301169050919050565b60006102a382610241565b6102ad818561024c565b93506102bd81856020860161025d565b6102c681610287565b840191505092915050565b6102da816101b8565b82525050565b600060408201905081810360008301526102fa8185610298565b905061030960208301846102d1565b9392505050565b600060208284031215610326576103256101b3565b5b6000610334848285016101d9565b91505092915050565b7f4e487b7100000000000000000000000000000000000000000000000000000000600052601160045260246000fd5b6000610377826101b8565b9150610382836101b8565b925082820190508082111561039a5761039961033d565b5b92915050565b60006103ab826101b8565b91506103b6836101b8565b92508282039050818111156103ce576103cd61033d565b5b9291505056fea264697066735822122046f3cba850542e50e40c102c775a7347eb5e91e755f8a8c3cc3341e36c41558f64736f6c63430008110033",
  "immutableReferences": {},
  "source": "//Malhar Bangdiwala BE Comps 2019130005\r\n// SPDX-License-Identifier: GPL-3.0\r\n\r\npragma solidity ^0.8.0;\r\n\r\ncontract CreditLimit{\r\n    uint hardlimit;\r\n    constructor(){\r\n        hardlimit=1000;\r\n    }\r\n    function spend(uint food,uint travel,uint stay) public returns (string memory,uint){\r\n        uint amt=food+travel+stay;\r\n        if (amt>hardlimit){\r\n            return(\"Transaction fail\",hardlimit);\r\n        }\r\n        else{\r\n            hardlimit=hardlimit-amt;\r\n            return(\"Transaction successful\",hardlimit);\r\n        }\r\n    }\r\n    function reset(uint amt) public returns(string memory,uint){\r\n        hardlimit=amt;\r\n        return(\"Limit reset\",hardlimit);\r\n    }\r\n}",
  "sourcePath": "D:\\Lab\\Sem7\\Lab\\Blockchain\\blockchainPractical\\truffletutorial\\contracts\\Creditlimit.sol",
  "compiler": {
    "name": "solc",
    "version": "0.8.17+commit.8df45f5f.Emscripten.clang"
  },
  "schemaVersion": "3.4.10",
  "updatedAt": "2022-11-01T09:47:55.742Z",
  "devdoc": {
    "kind": "dev",
    "methods": {},
    "version": 1
  },
  "userdoc": {
    "kind": "user",
    "methods": {},
    "version": 1
  }
}