{
  "contractName": "Divisibility",
  "abi": [
    {
      "inputs": [],
      "stateMutability": "nonpayable",
      "type": "constructor"
    },
    {
      "inputs": [
        {
          "internalType": "uint256",
          "name": "num1",
          "type": "uint256"
        },
        {
          "internalType": "uint256",
          "name": "num2",
          "type": "uint256"
        },
        {
          "internalType": "uint256",
          "name": "num3",
          "type": "uint256"
        }
      ],
      "name": "check",
      "outputs": [
        {
          "internalType": "string",
          "name": "",
          "type": "string"
        }
      ],
      "stateMutability": "view",
      "type": "function"
    },
    {
      "inputs": [
        {
          "internalType": "uint256",
          "name": "num",
          "type": "uint256"
        }
      ],
      "name": "setDivisor",
      "outputs": [
        {
          "internalType": "string",
          "name": "",
          "type": "string"
        }
      ],
      "stateMutability": "nonpayable",
      "type": "function"
    }
  ],
  "bytecode": "0x608060405234801561001057600080fd5b50600260008190555061043d806100286000396000f3fe608060405234801561001057600080fd5b50600436106100365760003560e01c80634feb57141461003b578063709f5ccc1461006b575b600080fd5b61005560048036038101906100509190610212565b61009b565b60405161006291906102f5565b60405180910390f35b61008560048036038101906100809190610317565b61014b565b60405161009291906102f5565b60405180910390f35b606060008284866100ac9190610373565b6100b69190610373565b905060008054826100c791906103d6565b0361010a576040518060400160405280601381526020017f4469766973696f6e207375636365737366756c00000000000000000000000000815250915050610144565b6040518060400160405280601581526020017f4469766973696f6e20756e7375636365737366756c00000000000000000000008152509150505b9392505050565b606060008203610192576040518060400160405280601381526020017f44697669736f722063616e6e6f7420626520300000000000000000000000000081525090506101d2565b816000819055506040518060400160405280601881526020017f44697669736f7220736574207375636365737366756c6c79000000000000000081525090505b919050565b600080fd5b6000819050919050565b6101ef816101dc565b81146101fa57600080fd5b50565b60008135905061020c816101e6565b92915050565b60008060006060848603121561022b5761022a6101d7565b5b6000610239868287016101fd565b935050602061024a868287016101fd565b925050604061025b868287016101fd565b9150509250925092565b600081519050919050565b600082825260208201905092915050565b60005b8381101561029f578082015181840152602081019050610284565b60008484015250505050565b6000601f19601f8301169050919050565b60006102c782610265565b6102d18185610270565b93506102e1818560208601610281565b6102ea816102ab565b840191505092915050565b6000602082019050818103600083015261030f81846102bc565b905092915050565b60006020828403121561032d5761032c6101d7565b5b600061033b848285016101fd565b91505092915050565b7f4e487b7100000000000000000000000000000000000000000000000000000000600052601160045260246000fd5b600061037e826101dc565b9150610389836101dc565b92508282019050808211156103a1576103a0610344565b5b92915050565b7f4e487b7100000000000000000000000000000000000000000000000000000000600052601260045260246000fd5b60006103e1826101dc565b91506103ec836101dc565b9250826103fc576103fb6103a7565b5b82820690509291505056fea26469706673582212208aa396ec9aa72d7a5313517ec58a1ec4c54ab9dcedce93bfbfa74792f17249a064736f6c63430008110033",
  "immutableReferences": {},
  "source": "\r\n//Malhar Bangdiwala BE Comps 2019130005\r\n// SPDX-License-Identifier: GPL-3.0\r\n\r\npragma solidity ^0.8.0;\r\n\r\ncontract Divisibility{\r\n    uint divisor;\r\n    constructor(){\r\n        divisor=2;\r\n    }\r\n    function check(uint num1,uint num2,uint num3) public view returns (string memory){\r\n        uint sum=num1+num2+num3;\r\n        if (sum%divisor==0){\r\n            return(\"Division successful\");\r\n        }\r\n        else{\r\n            return(\"Division unsuccessful\");\r\n        }\r\n    }\r\n    function setDivisor(uint num) public returns(string memory){\r\n        if(num==0){\r\n            return (\"Divisor cannot be 0\");\r\n        }\r\n        else{\r\n            divisor=num;\r\n            return(\"Divisor set successfully\");\r\n        }\r\n    }\r\n}",
  "sourcePath": "D:\\Lab\\Sem7\\Lab\\Blockchain\\blockchainPractical\\truffletutorial\\contracts\\Divisibilty.sol",
  "compiler": {
    "name": "solc",
    "version": "0.8.17+commit.8df45f5f.Emscripten.clang"
  },
  "schemaVersion": "3.4.10",
  "updatedAt": "2022-11-01T10:39:17.191Z",
  "devdoc": {
    "kind": "dev",
    "methods": {},
    "version": 1
  },
  "userdoc": {
    "kind": "user",
    "methods": {},
    "version": 1
  }
}